{
  "address": "0x5FbDB2315678afecb367f032d93F642f64180aa3",
  "abi": [
    {
      "inputs": [
        {
          "internalType": "uint256",
          "name": "",
          "type": "uint256"
        }
      ],
      "name": "elections",
      "outputs": [
        {
          "internalType": "uint256",
          "name": "registrationEndPeriod",
          "type": "uint256"
        },
        {
          "internalType": "uint256",
          "name": "votingEndPeriod",
          "type": "uint256"
        }
      ],
      "stateMutability": "view",
      "type": "function"
    },
    {
      "inputs": [
        {
          "internalType": "address",
          "name": "_candidateId",
          "type": "address"
        }
      ],
      "name": "getCandidateData",
      "outputs": [
        {
          "internalType": "uint256",
          "name": "",
          "type": "uint256"
        },
        {
          "internalType": "string",
          "name": "",
          "type": "string"
        }
      ],
      "stateMutability": "view",
      "type": "function"
    },
    {
      "inputs": [],
      "name": "getElectionsCount",
      "outputs": [
        {
          "internalType": "uint256",
          "name": "",
          "type": "uint256"
        }
      ],
      "stateMutability": "view",
      "type": "function"
    },
    {
      "inputs": [
        {
          "internalType": "uint256",
          "name": "_electionId",
          "type": "uint256"
        }
      ],
      "name": "getResults",
      "outputs": [
        {
          "internalType": "address[]",
          "name": "",
          "type": "address[]"
        },
        {
          "internalType": "uint256",
          "name": "",
          "type": "uint256"
        }
      ],
      "stateMutability": "view",
      "type": "function"
    },
    {
      "inputs": [],
      "name": "locked",
      "outputs": [
        {
          "internalType": "bool",
          "name": "",
          "type": "bool"
        }
      ],
      "stateMutability": "view",
      "type": "function"
    },
    {
      "inputs": [
        {
          "internalType": "uint256",
          "name": "_electionId",
          "type": "uint256"
        },
        {
          "internalType": "string",
          "name": "_name",
          "type": "string"
        }
      ],
      "name": "registerCandidate",
      "outputs": [],
      "stateMutability": "nonpayable",
      "type": "function"
    },
    {
      "inputs": [
        {
          "internalType": "uint256",
          "name": "_registrationEndPeriod",
          "type": "uint256"
        },
        {
          "internalType": "uint256",
          "name": "_votingEndPeriod",
          "type": "uint256"
        }
      ],
      "name": "startElection",
      "outputs": [],
      "stateMutability": "nonpayable",
      "type": "function"
    },
    {
      "inputs": [
        {
          "internalType": "uint256",
          "name": "_electionId",
          "type": "uint256"
        },
        {
          "internalType": "address",
          "name": "_candidateId",
          "type": "address"
        }
      ],
      "name": "voteForCandidate",
      "outputs": [],
      "stateMutability": "nonpayable",
      "type": "function"
    }
  ],
  "transactionHash": "0x55679253e89ee8d5730f6b4d5664e13f60e08b0f7f6a8c60d50c1cda7e6e0758",
  "args": [],
  "solcInputHash": "e690f13a916a31c9cf1ccad4dc5d3c77",
  "bytecode": "0x608060405234801561001057600080fd5b50611043806100206000396000f3fe608060405234801561001057600080fd5b50600436106100885760003560e01c806381a60c0d1161005b57806381a60c0d14610220578063b1bb6ec3146102aa578063cf309012146102c8578063d1009367146102e857610088565b80630b9675841461008d5780630c54b463146100db5780632a466ac7146101135780635e6fef01146101d7575b600080fd5b6100d9600480360360408110156100a357600080fd5b8101908080359060200190929190803573ffffffffffffffffffffffffffffffffffffffff1690602001909291905050506103ad565b005b610111600480360360408110156100f157600080fd5b8101908080359060200190929190803590602001909291905050506107c2565b005b6101556004803603602081101561012957600080fd5b81019080803573ffffffffffffffffffffffffffffffffffffffff16906020019092919050505061085b565b6040518083815260200180602001828103825283818151815260200191508051906020019080838360005b8381101561019b578082015181840152602081019050610180565b50505050905090810190601f1680156101c85780820380516001836020036101000a031916815260200191505b50935050505060405180910390f35b610203600480360360208110156101ed57600080fd5b8101908080359060200190929190505050610950565b604051808381526020018281526020019250505060405180910390f35b61024c6004803603602081101561023657600080fd5b8101908080359060200190929190505050610981565b6040518080602001838152602001828103825284818151815260200191508051906020019060200280838360005b8381101561029557808201518184015260208101905061027a565b50505050905001935050505060405180910390f35b6102b2610a3e565b6040518082815260200191505060405180910390f35b6102d0610a4b565b60405180821515815260200191505060405180910390f35b6103ab600480360360408110156102fe57600080fd5b81019080803590602001909291908035906020019064010000000081111561032557600080fd5b82018360208201111561033757600080fd5b8035906020019184600183028401116401000000008311171561035957600080fd5b91908080601f016020809104026020016040519081016040528093929190818152602001838380828437600081840152601f19601f820116905080830192505050505050509192919290505050610a5e565b005b600460009054906101000a900460ff1615610430576040517f08c379a000000000000000000000000000000000000000000000000000000000815260040180806020018281038252600d8152602001807f4e6f207265656e7472616e63790000000000000000000000000000000000000081525060200191505060405180910390fd5b6001600460006101000a81548160ff021916908315150217905550600160003373ffffffffffffffffffffffffffffffffffffffff1673ffffffffffffffffffffffffffffffffffffffff16815260200190815260200160002060009054906101000a900460ff16156104ee576040517f08c379a0000000000000000000000000000000000000000000000000000000008152600401808060200182810382526027815260200180610f6d6027913960400191505060405180910390fd5b61050660405180602001604052806000815250610dca565b6105e86000808473ffffffffffffffffffffffffffffffffffffffff1673ffffffffffffffffffffffffffffffffffffffff1681526020019081526020016000206002018054600181600116156101000203166002900480601f0160208091040260200160405190810160405280929190818152602001828054600181600116156101000203166002900480156105de5780601f106105b3576101008083540402835291602001916105de565b820191906000526020600020905b8154815290600101906020018083116105c157829003601f168201915b5050505050610dca565b141561063f576040517f08c379a000000000000000000000000000000000000000000000000000000000815260040180806020018281038252602c815260200180610f94602c913960400191505060405180910390fd5b6002828154811061064c57fe5b9060005260206000209060030201600001544211801561068957506002828154811061067457fe5b90600052602060002090600302016001015442105b6106fb576040517f08c379a000000000000000000000000000000000000000000000000000000000815260040180806020018281038252601a8152602001807f566f74696e67206973206e6f7420616c6c6f776564206e6f772e00000000000081525060200191505060405180910390fd5b6000808273ffffffffffffffffffffffffffffffffffffffff1673ffffffffffffffffffffffffffffffffffffffff1681526020019081526020016000206000016000815480929190600101919050555060018060003373ffffffffffffffffffffffffffffffffffffffff1673ffffffffffffffffffffffffffffffffffffffff16815260200190815260200160002060006101000a81548160ff0219169083151502179055506000600460006101000a81548160ff0219169083151502179055505050565b4282101580156107d25750818110155b6107db57600080fd5b60606002604051806060016040528085815260200184815260200183815250908060018154018082558091505060019003906000526020600020906003020160009091909190915060008201518160000155602082015181600101556040820151816002019080519060200190610853929190610e45565b505050505050565b6000606060008060008573ffffffffffffffffffffffffffffffffffffffff1673ffffffffffffffffffffffffffffffffffffffff1681526020019081526020016000209050806000015481600201808054600181600116156101000203166002900480601f01602080910402602001604051908101604052809291908181526020018280546001816001161561010002031660029004801561093f5780601f106109145761010080835404028352916020019161093f565b820191906000526020600020905b81548152906001019060200180831161092257829003601f168201915b505050505090509250925050915091565b6002818154811061095d57fe5b90600052602060002090600302016000915090508060000154908060010154905082565b60606000806002848154811061099357fe5b9060005260206000209060030201905080600201816001015481805480602002602001604051908101604052809291908181526020018280548015610a2d57602002820191906000526020600020905b8160009054906101000a900473ffffffffffffffffffffffffffffffffffffffff1673ffffffffffffffffffffffffffffffffffffffff16815260200190600101908083116109e3575b505050505091509250925050915091565b6000600280549050905090565b600460009054906101000a900460ff1681565b610a7660405180602001604052806000815250610dca565b610a7f82610dca565b1415610af3576040517f08c379a000000000000000000000000000000000000000000000000000000000815260040180806020018281038252601c8152602001807f506c6561736520726567697374657220776974682061206e616d652e0000000081525060200191505060405180910390fd5b60028281548110610b0057fe5b9060005260206000209060030201600001544210610b69576040517f08c379a0000000000000000000000000000000000000000000000000000000008152600401808060200182810382526022815260200180610fc06022913960400191505060405180910390fd5b610b8160405180602001604052806000815250610dca565b610c636000803373ffffffffffffffffffffffffffffffffffffffff1673ffffffffffffffffffffffffffffffffffffffff1681526020019081526020016000206002018054600181600116156101000203166002900480601f016020809104026020016040519081016040528092919081815260200182805460018160011615610100020316600290048015610c595780601f10610c2e57610100808354040283529160200191610c59565b820191906000526020600020905b815481529060010190602001808311610c3c57829003601f168201915b5050505050610dca565b14610cb9576040517f08c379a000000000000000000000000000000000000000000000000000000000815260040180806020018281038252602c815260200180610fe2602c913960400191505060405180910390fd5b60028281548110610cc657fe5b9060005260206000209060030201600201339080600181540180825580915050600190039060005260206000200160009091909190916101000a81548173ffffffffffffffffffffffffffffffffffffffff021916908373ffffffffffffffffffffffffffffffffffffffff160217905550604051806060016040528060008152602001838152602001828152506000803373ffffffffffffffffffffffffffffffffffffffff1673ffffffffffffffffffffffffffffffffffffffff16815260200190815260200160002060008201518160000155602082015181600101556040820151816002019080519060200190610dc2929190610ecf565b509050505050565b6000816040516020018082805190602001908083835b60208310610e035780518252602082019150602081019050602083039250610de0565b6001836020036101000a038019825116818451168082178552505050505050905001915050604051602081830303815290604052805190602001209050919050565b828054828255906000526020600020908101928215610ebe579160200282015b82811115610ebd5782518260006101000a81548173ffffffffffffffffffffffffffffffffffffffff021916908373ffffffffffffffffffffffffffffffffffffffff16021790555091602001919060010190610e65565b5b509050610ecb9190610f4f565b5090565b828054600181600116156101000203166002900490600052602060002090601f016020900481019282601f10610f1057805160ff1916838001178555610f3e565b82800160010185558215610f3e579182015b82811115610f3d578251825591602001919060010190610f22565b5b509050610f4b9190610f4f565b5090565b5b80821115610f68576000816000905550600101610f50565b509056fe596f75206861766520616c726561647920766f74656420666f7220612063616e6469646174652e54686973206164647265737320646f6573206e6f742062656c6f6e6720746f20612063616e6469646174652e54686520726567697374726174696f6e20706572696f642068617320656e6465642e596f75206861766520616c7265616479207265676973746572656420666f7220616e20656c656374696f6e2ea2646970667358221220b7cf12f88291d95d6c068df70b23d0b8c947c16b487111243aa9beda238aa33464736f6c63430007030033",
  "devdoc": {
    "kind": "dev",
    "methods": {},
    "version": 1
  },
  "userdoc": {
    "kind": "user",
    "methods": {},
    "version": 1
  },
  "storageLayout": {
    "storage": [
      {
        "astId": 21,
        "contract": "contracts/Voting.sol:Voting",
        "label": "candidateToCandidateDataMap",
        "offset": 0,
        "slot": "0",
        "type": "t_mapping(t_address,t_struct(CandidateData)17_storage)"
      },
      {
        "astId": 25,
        "contract": "contracts/Voting.sol:Voting",
        "label": "voters",
        "offset": 0,
        "slot": "1",
        "type": "t_mapping(t_address,t_bool)"
      },
      {
        "astId": 28,
        "contract": "contracts/Voting.sol:Voting",
        "label": "elections",
        "offset": 0,
        "slot": "2",
        "type": "t_array(t_struct(Election)10_storage)dyn_storage"
      },
      {
        "astId": 30,
        "contract": "contracts/Voting.sol:Voting",
        "label": "numElections",
        "offset": 0,
        "slot": "3",
        "type": "t_uint256"
      },
      {
        "astId": 32,
        "contract": "contracts/Voting.sol:Voting",
        "label": "locked",
        "offset": 0,
        "slot": "4",
        "type": "t_bool"
      }
    ],
    "types": {
      "t_address": {
        "encoding": "inplace",
        "label": "address",
        "numberOfBytes": "20"
      },
      "t_array(t_address)dyn_storage": {
        "base": "t_address",
        "encoding": "dynamic_array",
        "label": "address[]",
        "numberOfBytes": "32"
      },
      "t_array(t_struct(Election)10_storage)dyn_storage": {
        "base": "t_struct(Election)10_storage",
        "encoding": "dynamic_array",
        "label": "struct Voting.Election[]",
        "numberOfBytes": "32"
      },
      "t_bool": {
        "encoding": "inplace",
        "label": "bool",
        "numberOfBytes": "1"
      },
      "t_mapping(t_address,t_bool)": {
        "encoding": "mapping",
        "key": "t_address",
        "label": "mapping(address => bool)",
        "numberOfBytes": "32",
        "value": "t_bool"
      },
      "t_mapping(t_address,t_struct(CandidateData)17_storage)": {
        "encoding": "mapping",
        "key": "t_address",
        "label": "mapping(address => struct Voting.CandidateData)",
        "numberOfBytes": "32",
        "value": "t_struct(CandidateData)17_storage"
      },
      "t_string_storage": {
        "encoding": "bytes",
        "label": "string",
        "numberOfBytes": "32"
      },
      "t_struct(CandidateData)17_storage": {
        "encoding": "inplace",
        "label": "struct Voting.CandidateData",
        "members": [
          {
            "astId": 12,
            "contract": "contracts/Voting.sol:Voting",
            "label": "voteCount",
            "offset": 0,
            "slot": "0",
            "type": "t_uint256"
          },
          {
            "astId": 14,
            "contract": "contracts/Voting.sol:Voting",
            "label": "electionId",
            "offset": 0,
            "slot": "1",
            "type": "t_uint256"
          },
          {
            "astId": 16,
            "contract": "contracts/Voting.sol:Voting",
            "label": "name",
            "offset": 0,
            "slot": "2",
            "type": "t_string_storage"
          }
        ],
        "numberOfBytes": "96"
      },
      "t_struct(Election)10_storage": {
        "encoding": "inplace",
        "label": "struct Voting.Election",
        "members": [
          {
            "astId": 4,
            "contract": "contracts/Voting.sol:Voting",
            "label": "registrationEndPeriod",
            "offset": 0,
            "slot": "0",
            "type": "t_uint256"
          },
          {
            "astId": 6,
            "contract": "contracts/Voting.sol:Voting",
            "label": "votingEndPeriod",
            "offset": 0,
            "slot": "1",
            "type": "t_uint256"
          },
          {
            "astId": 9,
            "contract": "contracts/Voting.sol:Voting",
            "label": "candidates",
            "offset": 0,
            "slot": "2",
            "type": "t_array(t_address)dyn_storage"
          }
        ],
        "numberOfBytes": "96"
      },
      "t_uint256": {
        "encoding": "inplace",
        "label": "uint256",
        "numberOfBytes": "32"
      }
    }
  }
}